{
  "_format": "hh-sol-artifact-1",
  "contractName": "GasLot",
  "sourceName": "contracts/GasLot.sol",
  "abi": [
    {
      "inputs": [
        {
          "internalType": "address",
          "name": "_gov",
          "type": "address"
        }
      ],
      "stateMutability": "nonpayable",
      "type": "constructor"
    },
    {
      "inputs": [],
      "name": "InsufficientFee",
      "type": "error"
    },
    {
      "anonymous": false,
      "inputs": [
        {
          "indexed": false,
          "internalType": "uint256",
          "name": "GasAmount",
          "type": "uint256"
        }
      ],
      "name": "GasDeposited",
      "type": "event"
    },
    {
      "anonymous": false,
      "inputs": [
        {
          "indexed": false,
          "internalType": "address[]",
          "name": "Winners",
          "type": "address[]"
        },
        {
          "indexed": false,
          "internalType": "uint256",
          "name": "Round",
          "type": "uint256"
        }
      ],
      "name": "GasDistributed",
      "type": "event"
    },
    {
      "anonymous": false,
      "inputs": [
        {
          "indexed": false,
          "internalType": "uint64",
          "name": "sequenceNumber",
          "type": "uint64"
        }
      ],
      "name": "RandRequest",
      "type": "event"
    },
    {
      "anonymous": false,
      "inputs": [
        {
          "indexed": false,
          "internalType": "address[]",
          "name": "WinningAddrs",
          "type": "address[]"
        },
        {
          "indexed": false,
          "internalType": "uint256",
          "name": "Round",
          "type": "uint256"
        }
      ],
      "name": "Winners",
      "type": "event"
    },
    {
      "inputs": [],
      "name": "BLAST",
      "outputs": [
        {
          "internalType": "contract IBlast",
          "name": "",
          "type": "address"
        }
      ],
      "stateMutability": "view",
      "type": "function"
    },
    {
      "inputs": [
        {
          "internalType": "address[]",
          "name": "donators",
          "type": "address[]"
        }
      ],
      "name": "dropToHappyWinners",
      "outputs": [],
      "stateMutability": "nonpayable",
      "type": "function"
    },
    {
      "inputs": [],
      "name": "gasGoverner",
      "outputs": [
        {
          "internalType": "address",
          "name": "",
          "type": "address"
        }
      ],
      "stateMutability": "view",
      "type": "function"
    },
    {
      "inputs": [
        {
          "internalType": "uint256",
          "name": "randNum",
          "type": "uint256"
        },
        {
          "internalType": "uint256",
          "name": "donatorsCount",
          "type": "uint256"
        }
      ],
      "name": "generateHappyNumber",
      "outputs": [
        {
          "internalType": "uint256",
          "name": "",
          "type": "uint256"
        }
      ],
      "stateMutability": "payable",
      "type": "function"
    },
    {
      "inputs": [
        {
          "internalType": "uint256",
          "name": "roundId",
          "type": "uint256"
        }
      ],
      "name": "theCandidates",
      "outputs": [
        {
          "internalType": "uint256",
          "name": "potAmt",
          "type": "uint256"
        },
        {
          "internalType": "address",
          "name": "owner",
          "type": "address"
        }
      ],
      "stateMutability": "view",
      "type": "function"
    },
    {
      "stateMutability": "payable",
      "type": "receive"
    }
  ],
  "bytecode": "0x6080604052600080546001600160401b031916600117905534801561002357600080fd5b506040516110c63803806110c68339810160408190526100429161013e565b60008054600160401b600160e01b031916680100000000000000006001600160a01b0384160217815560408051634e606c4760e01b8152905173430000000000000000000000000000000000000292634e606c47926004808201939182900301818387803b1580156100b357600080fd5b505af11580156100c7573d6000803e3d6000fd5b5050604051631d70c8d360e31b81526001600160a01b0384166004820152734300000000000000000000000000000000000002925063eb8646989150602401600060405180830381600087803b15801561012057600080fd5b505af1158015610134573d6000803e3d6000fd5b505050505061016e565b60006020828403121561015057600080fd5b81516001600160a01b038116811461016757600080fd5b9392505050565b610f498061017d6000396000f3fe60806040526004361061005e5760003560e01c806397d757761161004357806397d7577614610143578063c66d610a14610183578063c97576a9146101a457600080fd5b8063375caabd146100bd5780638cb781db146100df57600080fd5b366100b8576000805467ffffffffffffffff1681526002602081815260409283902034920182905591519081527fdedfb98eaf0bb1b06155c3172df8747d81adc4f1fd9c1089558c9f3953e15c5d910160405180910390a1005b600080fd5b3480156100c957600080fd5b506100dd6100d8366004610c5a565b6101d0565b005b3480156100eb57600080fd5b506101216100fa366004610ccf565b6002602081905260009182526040909120908101546003909101546001600160a01b031682565b604080519283526001600160a01b039091166020830152015b60405180910390f35b34801561014f57600080fd5b5061016b73430000000000000000000000000000000000000281565b6040516001600160a01b03909116815260200161013a565b610196610191366004610ce8565b6102b7565b60405190815260200161013a565b3480156101b057600080fd5b5060005461016b906801000000000000000090046001600160a01b031681565b6000546801000000000000000090046001600160a01b03163314610254576040517f08c379a000000000000000000000000000000000000000000000000000000000815260206004820152601860248201527f596f7520617265206e6f742074686520676f7665726e65720000000000000000604482015260640160405180910390fd5b600061026083836105ce565b905061026b816107b9565b506000546040517f143b2872a0181a736a0e4023a310239d4d291f97c909991b8c6b4f31bfc24077916102aa91849167ffffffffffffffff1690610d0a565b60405180910390a1505050565b6040517fb88c9148000000000000000000000000000000000000000000000000000000008152736cc14824ea2918f5de5c2f75a9da968ad4bd6344600482015260009081907398046bd286715d3b0bc227dd7a956b83d89786039063b88c914890602401602060405180830381865afa158015610338573d6000803e3d6000fd5b505050506040513d601f19601f8201168201806040525081019061035c9190610d68565b6fffffffffffffffffffffffffffffffff169050803410156103aa576040517f025dbdd400000000000000000000000000000000000000000000000000000000815260040160405180910390fd5b6040517fc715aa2e000000000000000000000000000000000000000000000000000000008152600481018590526000907398046bd286715d3b0bc227dd7a956b83d8978603906393cbf217908490736cc14824ea2918f5de5c2f75a9da968ad4bd634490849063c715aa2e90602401602060405180830381865afa158015610436573d6000803e3d6000fd5b505050506040513d601f19601f8201168201806040525081019061045a9190610da1565b6040517fffffffff0000000000000000000000000000000000000000000000000000000060e086901b1681526001600160a01b03909216600483015260248201526001604482015260640160206040518083038185885af11580156104c3573d6000803e3d6000fd5b50505050506040513d601f19601f820116820180604052508101906104e89190610dba565b67ffffffffffffffff81166000908152600160209081526040808320805473ffffffffffffffffffffffffffffffffffffffff19163317905551929350909186916105609185910160c09190911b7fffffffffffffffff00000000000000000000000000000000000000000000000016815260080190565b6040516020818303038152906040528051906020012060001c6105839190610dfa565b60405167ffffffffffffffff841681529091507f71f1e775d4cd66a75f50f7aa7e7636473bd9aa1a95ed4ed83bc0e8571ad1207d9060200160405180910390a1925050505b92915050565b6000805467ffffffffffffffff1681526002602052604090206060906105f5908484610b73565b50604080516003808252608082019092526000916020820160608036833750506040805160038082526080820190925292935060009291506020820160608036833701905050905060005b82518110156106f65761065c6106568683610e24565b866102b7565b83828151811061066e5761066e610e3b565b602002602001018181525050858584838151811061068e5761068e610e3b565b60200260200101518181106106a5576106a5610e3b565b90506020020160208101906106ba9190610e51565b8282815181106106cc576106cc610e3b565b6001600160a01b0390921660209283029190910190910152806106ee81610e7a565b915050610640565b506000546040517f413cf1e17d70833c017de9b3c64d0104e3e37a7191d95b3d0d6276de992a0b4d9161073591849167ffffffffffffffff1690610d0a565b60405180910390a16000805467ffffffffffffffff168152600260209081526040909120825161076d92600190920191840190610be3565b506000805467ffffffffffffffff16908061078783610e93565b91906101000a81548167ffffffffffffffff021916908367ffffffffffffffff16021790555050809250505092915050565b6040517fdde798a4000000000000000000000000000000000000000000000000000000008152306004820152600090819081907343000000000000000000000000000000000000029063dde798a490602401608060405180830381865afa158015610828573d6000803e3d6000fd5b505050506040513d601f19601f8201168201806040525081019061084c9190610eba565b505060408051600480825260a082019092529294509092506000919060208201608080368337505060408051600480825260a082019092529293506000929150602082016080803683370190505090506108a7606484610eff565b6108b2906032610e24565b826000815181106108c5576108c5610e3b565b60209081029190910101526108db606484610eff565b6108e6906019610e24565b826001815181106108f9576108f9610e3b565b602090810291909101015261090f606484610eff565b61091a90600f610e24565b8260028151811061092d5761092d610e3b565b6020908102919091010152610943606484610eff565b61094e90600a610e24565b8260038151811061096157610961610e3b565b6020908102919091010152610977606485610eff565b610982906032610e24565b8160008151811061099557610995610e3b565b60209081029190910101526109ab606485610eff565b6109b6906019610e24565b816001815181106109c9576109c9610e3b565b60209081029190910101526109df606485610eff565b6109ea90600f610e24565b816002815181106109fd576109fd610e3b565b6020908102919091010152610a13606485610eff565b610a1e90600a610e24565b81600381518110610a3157610a31610e3b565b60200260200101818152505060005b8651811015610b66577343000000000000000000000000000000000000026001600160a01b031663fafce39e30898481518110610a7f57610a7f610e3b565b6020026020010151868581518110610a9957610a99610e3b565b6020026020010151868681518110610ab357610ab3610e3b565b60209081029190910101516040517fffffffff0000000000000000000000000000000000000000000000000000000060e087901b1681526001600160a01b039485166004820152939092166024840152604483015260648201526084016020604051808303816000875af1158015610b2f573d6000803e3d6000fd5b505050506040513d601f19601f82011682018060405250810190610b539190610da1565b5080610b5e81610e7a565b915050610a40565b5060019695505050505050565b828054828255906000526020600020908101928215610bd3579160200282015b82811115610bd357815473ffffffffffffffffffffffffffffffffffffffff19166001600160a01b03843516178255602090920191600190910190610b93565b50610bdf929150610c45565b5090565b828054828255906000526020600020908101928215610bd3579160200282015b82811115610bd3578251825473ffffffffffffffffffffffffffffffffffffffff19166001600160a01b03909116178255602090920191600190910190610c03565b5b80821115610bdf5760008155600101610c46565b60008060208385031215610c6d57600080fd5b823567ffffffffffffffff80821115610c8557600080fd5b818501915085601f830112610c9957600080fd5b813581811115610ca857600080fd5b8660208260051b8501011115610cbd57600080fd5b60209290920196919550909350505050565b600060208284031215610ce157600080fd5b5035919050565b60008060408385031215610cfb57600080fd5b50508035926020909101359150565b604080825283519082018190526000906020906060840190828701845b82811015610d4c5781516001600160a01b031684529284019290840190600101610d27565b50505067ffffffffffffffff9490941692019190915250919050565b600060208284031215610d7a57600080fd5b81516fffffffffffffffffffffffffffffffff81168114610d9a57600080fd5b9392505050565b600060208284031215610db357600080fd5b5051919050565b600060208284031215610dcc57600080fd5b815167ffffffffffffffff81168114610d9a57600080fd5b634e487b7160e01b600052601260045260246000fd5b600082610e0957610e09610de4565b500690565b634e487b7160e01b600052601160045260246000fd5b80820281158282048414176105c8576105c8610e0e565b634e487b7160e01b600052603260045260246000fd5b600060208284031215610e6357600080fd5b81356001600160a01b0381168114610d9a57600080fd5b600060018201610e8c57610e8c610e0e565b5060010190565b600067ffffffffffffffff808316818103610eb057610eb0610e0e565b6001019392505050565b60008060008060808587031215610ed057600080fd5b845193506020850151925060408501519150606085015160028110610ef457600080fd5b939692955090935050565b600082610f0e57610f0e610de4565b50049056fea264697066735822122090d3762c4162d68d8bc37abe03ba03ef4163472dca00e8256b0569a0df96b89864736f6c63430008130033",
  "linkReferences": {},
  "deployedLinkReferences": {}
}