{
  "_format": "hh-sol-artifact-1",
  "contractName": "CampaignManager",
  "sourceName": "contracts/CampaignManager.sol",
  "abi": [
    {
      "anonymous": false,
      "inputs": [
        {
          "indexed": false,
          "internalType": "address",
          "name": "CampaignAddress",
          "type": "address"
        }
      ],
      "name": "CampaignGenerated",
      "type": "event"
    },
    {
      "anonymous": false,
      "inputs": [
        {
          "indexed": true,
          "internalType": "address",
          "name": "previousOwner",
          "type": "address"
        },
        {
          "indexed": true,
          "internalType": "address",
          "name": "newOwner",
          "type": "address"
        }
      ],
      "name": "OwnershipTransferred",
      "type": "event"
    },
    {
      "inputs": [
        {
          "internalType": "uint256",
          "name": "",
          "type": "uint256"
        }
      ],
      "name": "allTheCampaigns",
      "outputs": [
        {
          "internalType": "address",
          "name": "owner",
          "type": "address"
        },
        {
          "internalType": "bool",
          "name": "payedOut",
          "type": "bool"
        },
        {
          "internalType": "string",
          "name": "title",
          "type": "string"
        },
        {
          "internalType": "string",
          "name": "description",
          "type": "string"
        },
        {
          "internalType": "uint256",
          "name": "target",
          "type": "uint256"
        },
        {
          "internalType": "uint256",
          "name": "deadline",
          "type": "uint256"
        },
        {
          "internalType": "uint256",
          "name": "amountCollected",
          "type": "uint256"
        },
        {
          "internalType": "string",
          "name": "image",
          "type": "string"
        }
      ],
      "stateMutability": "view",
      "type": "function"
    },
    {
      "inputs": [
        {
          "internalType": "uint256",
          "name": "",
          "type": "uint256"
        }
      ],
      "name": "campaigns",
      "outputs": [
        {
          "internalType": "contract BaseCampaign",
          "name": "",
          "type": "address"
        }
      ],
      "stateMutability": "view",
      "type": "function"
    },
    {
      "inputs": [
        {
          "internalType": "address",
          "name": "campaignAddress",
          "type": "address"
        }
      ],
      "name": "claimableYeildAmt",
      "outputs": [
        {
          "internalType": "uint256",
          "name": "",
          "type": "uint256"
        }
      ],
      "stateMutability": "nonpayable",
      "type": "function"
    },
    {
      "inputs": [
        {
          "internalType": "address",
          "name": "_owner",
          "type": "address"
        },
        {
          "internalType": "string",
          "name": "_title",
          "type": "string"
        },
        {
          "internalType": "string",
          "name": "_description",
          "type": "string"
        },
        {
          "internalType": "uint256",
          "name": "_target",
          "type": "uint256"
        },
        {
          "internalType": "uint256",
          "name": "_deadline",
          "type": "uint256"
        },
        {
          "internalType": "string",
          "name": "_image",
          "type": "string"
        }
      ],
      "name": "createCampaign",
      "outputs": [],
      "stateMutability": "nonpayable",
      "type": "function"
    },
    {
      "inputs": [
        {
          "internalType": "uint256",
          "name": "_id",
          "type": "uint256"
        }
      ],
      "name": "deleteCampaign",
      "outputs": [
        {
          "internalType": "bool",
          "name": "",
          "type": "bool"
        }
      ],
      "stateMutability": "nonpayable",
      "type": "function"
    },
    {
      "inputs": [
        {
          "internalType": "uint256",
          "name": "_id",
          "type": "uint256"
        }
      ],
      "name": "donateToCampaign",
      "outputs": [],
      "stateMutability": "payable",
      "type": "function"
    },
    {
      "inputs": [
        {
          "internalType": "uint256",
          "name": "_id",
          "type": "uint256"
        }
      ],
      "name": "getCampaignDonators",
      "outputs": [
        {
          "internalType": "address[]",
          "name": "",
          "type": "address[]"
        },
        {
          "internalType": "uint256[]",
          "name": "",
          "type": "uint256[]"
        }
      ],
      "stateMutability": "view",
      "type": "function"
    },
    {
      "inputs": [
        {
          "internalType": "uint256",
          "name": "start",
          "type": "uint256"
        },
        {
          "internalType": "uint256",
          "name": "end",
          "type": "uint256"
        }
      ],
      "name": "getCampaigns",
      "outputs": [
        {
          "components": [
            {
              "internalType": "address",
              "name": "owner",
              "type": "address"
            },
            {
              "internalType": "bool",
              "name": "payedOut",
              "type": "bool"
            },
            {
              "internalType": "string",
              "name": "title",
              "type": "string"
            },
            {
              "internalType": "string",
              "name": "description",
              "type": "string"
            },
            {
              "internalType": "uint256",
              "name": "target",
              "type": "uint256"
            },
            {
              "internalType": "uint256",
              "name": "deadline",
              "type": "uint256"
            },
            {
              "internalType": "uint256",
              "name": "amountCollected",
              "type": "uint256"
            },
            {
              "internalType": "string",
              "name": "image",
              "type": "string"
            },
            {
              "internalType": "address[]",
              "name": "donators",
              "type": "address[]"
            },
            {
              "internalType": "uint256[]",
              "name": "donations",
              "type": "uint256[]"
            }
          ],
          "internalType": "struct Campaign[]",
          "name": "",
          "type": "tuple[]"
        }
      ],
      "stateMutability": "view",
      "type": "function"
    },
    {
      "inputs": [],
      "name": "getCampaigns",
      "outputs": [
        {
          "components": [
            {
              "internalType": "address",
              "name": "owner",
              "type": "address"
            },
            {
              "internalType": "bool",
              "name": "payedOut",
              "type": "bool"
            },
            {
              "internalType": "string",
              "name": "title",
              "type": "string"
            },
            {
              "internalType": "string",
              "name": "description",
              "type": "string"
            },
            {
              "internalType": "uint256",
              "name": "target",
              "type": "uint256"
            },
            {
              "internalType": "uint256",
              "name": "deadline",
              "type": "uint256"
            },
            {
              "internalType": "uint256",
              "name": "amountCollected",
              "type": "uint256"
            },
            {
              "internalType": "string",
              "name": "image",
              "type": "string"
            },
            {
              "internalType": "address[]",
              "name": "donators",
              "type": "address[]"
            },
            {
              "internalType": "uint256[]",
              "name": "donations",
              "type": "uint256[]"
            }
          ],
          "internalType": "struct Campaign[]",
          "name": "",
          "type": "tuple[]"
        }
      ],
      "stateMutability": "view",
      "type": "function"
    },
    {
      "inputs": [],
      "name": "owner",
      "outputs": [
        {
          "internalType": "address",
          "name": "",
          "type": "address"
        }
      ],
      "stateMutability": "view",
      "type": "function"
    },
    {
      "inputs": [
        {
          "internalType": "uint256",
          "name": "_id",
          "type": "uint256"
        }
      ],
      "name": "payOutToCampaignTeam",
      "outputs": [
        {
          "internalType": "bool",
          "name": "",
          "type": "bool"
        }
      ],
      "stateMutability": "nonpayable",
      "type": "function"
    },
    {
      "inputs": [],
      "name": "platformOwner",
      "outputs": [
        {
          "internalType": "address",
          "name": "",
          "type": "address"
        }
      ],
      "stateMutability": "view",
      "type": "function"
    },
    {
      "inputs": [],
      "name": "renounceOwnership",
      "outputs": [],
      "stateMutability": "nonpayable",
      "type": "function"
    },
    {
      "inputs": [
        {
          "internalType": "address",
          "name": "newOwner",
          "type": "address"
        }
      ],
      "name": "transferOwnership",
      "outputs": [],
      "stateMutability": "nonpayable",
      "type": "function"
    },
    {
      "inputs": [
        {
          "internalType": "uint256",
          "name": "_id",
          "type": "uint256"
        },
        {
          "internalType": "string",
          "name": "_title",
          "type": "string"
        },
        {
          "internalType": "string",
          "name": "_description",
          "type": "string"
        },
        {
          "internalType": "uint256",
          "name": "_target",
          "type": "uint256"
        },
        {
          "internalType": "uint256",
          "name": "_deadline",
          "type": "uint256"
        },
        {
          "internalType": "string",
          "name": "_image",
          "type": "string"
        }
      ],
      "name": "updateCampaign",
      "outputs": [
        {
          "internalType": "bool",
          "name": "",
          "type": "bool"
        }
      ],
      "stateMutability": "nonpayable",
      "type": "function"
    },
    {
      "inputs": [
        {
          "internalType": "address",
          "name": "campaignAddress",
          "type": "address"
        }
      ],
      "name": "withdrawRremainingYield",
      "outputs": [],
      "stateMutability": "nonpayable",
      "type": "function"
    }
  ],
  "bytecode": "0x60a06040523360805234801561001457600080fd5b5061001e33610023565b610073565b600080546001600160a01b038381166001600160a01b0319831681178455604051919092169283917f8be0079c531659141344cd1fd0a4f28419497f9722a3daafe3b4186f6b6457e09190a35050565b608051615583610095600039600081816101ef01526109b401526155836000f3fe608060405260043610620001075760003560e01c80638da5cb5b1162000095578063a79f928d1162000060578063a79f928d1462000315578063d9acef5f146200033a578063e6ea7dcc146200035f578063f2fde38b146200039457600080fd5b80638da5cb5b14620002845780639943e3a114620002a45780639c2c586614620002c9578063a6b0363314620002fd57600080fd5b80634df8ccb111620000d65780634df8ccb114620001db578063567102e11462000211578063715018a6146200023657806375970193146200024e57600080fd5b806309051566146200010c578063141961bc146200014957806325829be3146200018757806342a4fda814620001c2575b600080fd5b3480156200011957600080fd5b50620001316200012b36600462001200565b620003b9565b604051620001409190620012ef565b60405180910390f35b3480156200015657600080fd5b506200016e6200016836600462001419565b620004d2565b6040516001600160a01b03909116815260200162000140565b3480156200019457600080fd5b50620001ac620001a636600462001419565b620004fd565b6040516200014098979695949392919062001433565b620001d9620001d336600462001419565b6200070f565b005b348015620001e857600080fd5b506200016e7f000000000000000000000000000000000000000000000000000000000000000081565b3480156200021e57600080fd5b50620001d962000230366004620014c3565b6200083d565b3480156200024357600080fd5b50620001d9620008dc565b3480156200025b57600080fd5b50620002736200026d36600462001419565b620008f4565b604051901515815260200162000140565b3480156200029157600080fd5b506000546001600160a01b03166200016e565b348015620002b157600080fd5b50620001d9620002c3366004620015e8565b620009a9565b348015620002d657600080fd5b50620002ee620002e8366004620014c3565b62000aef565b60405190815260200162000140565b3480156200030a57600080fd5b506200013162000b94565b3480156200032257600080fd5b506200027362000334366004620016a1565b62000c9d565b3480156200034757600080fd5b50620002736200035936600462001419565b62000d62565b3480156200036c57600080fd5b50620003846200037e36600462001419565b62000e18565b60405162000140929190620016db565b348015620003a157600080fd5b50620001d9620003b3366004620014c3565b62000ec7565b60606000620003c9848462001779565b67ffffffffffffffff811115620003e457620003e4620014ea565b6040519080825280602002602001820160405280156200047957816020015b6200046560405180610140016040528060006001600160a01b0316815260200160001515815260200160608152602001606081526020016000815260200160008152602001600081526020016060815260200160608152602001606081525090565b815260200190600190039081620004035790505b509050835b83811015620004c857620004928162000f5d565b828281518110620004a757620004a76200178f565b60200260200101819052508080620004bf90620017a5565b9150506200047e565b5090505b92915050565b60028181548110620004e357600080fd5b6000918252602090912001546001600160a01b0316905081565b600560205260009081526040902080546001820180546001600160a01b038316937401000000000000000000000000000000000000000090930460ff169291906200054890620017c1565b80601f01602080910402602001604051908101604052809291908181526020018280546200057690620017c1565b8015620005c75780601f106200059b57610100808354040283529160200191620005c7565b820191906000526020600020905b815481529060010190602001808311620005a957829003601f168201915b505050505090806002018054620005de90620017c1565b80601f01602080910402602001604051908101604052809291908181526020018280546200060c90620017c1565b80156200065d5780601f1062000631576101008083540402835291602001916200065d565b820191906000526020600020905b8154815290600101906020018083116200063f57829003601f168201915b5050505050908060030154908060040154908060050154908060060180546200068690620017c1565b80601f0160208091040260200160405190810160405280929190818152602001828054620006b490620017c1565b8015620007055780601f10620006d95761010080835404028352916020019162000705565b820191906000526020600020905b815481529060010190602001808311620006e757829003601f168201915b5050505050905088565b600081815260046020526040808220549051602481018390526001600160a01b0390911690349060440160408051601f198184030181529181526020820180517bffffffffffffffffffffffffffffffffffffffffffffffffffffffff167f42a4fda800000000000000000000000000000000000000000000000000000000179052516200079e9190620017f7565b60006040518083038185875af1925050503d8060008114620007dd576040519150601f19603f3d011682016040523d82523d6000602084013e620007e2565b606091505b5050905080620008395760405162461bcd60e51b815260206004820152600f60248201527f446f6e6174696e67206661696c6564000000000000000000000000000000000060448201526064015b60405180910390fd5b5050565b6200084762001046565b6001600160a01b038082166000908152600360209081526040808320548084526004928390528184205482517f9060fcb9000000000000000000000000000000000000000000000000000000008152925191951693639060fcb9938381019391929182900301818387803b158015620008bf57600080fd5b505af1158015620008d4573d6000803e3d6000fd5b505050505050565b620008e662001046565b620008f26000620010a2565b565b6000816200090281620010ff565b60008381526004602081905260408083205490517f759701930000000000000000000000000000000000000000000000000000000081526001600160a01b03909116926375970193926200095a920190815260200190565b6020604051808303816000875af11580156200097a573d6000803e3d6000fd5b505050506040513d601f19601f82011682018060405250810190620009a091906200182b565b91505b50919050565b6000868686868686307f0000000000000000000000000000000000000000000000000000000000000000604051620009e190620011f2565b620009f498979695949392919062001849565b604051809103906000f08015801562000a11573d6000803e3d6000fd5b506002805460018181019092557f405787fa12a823e0f2b7631cc41b3ba8828b3321ca811111fa75cd3aa3bb5ace0180546001600160a01b03841673ffffffffffffffffffffffffffffffffffffffff19918216811790925582546000908152600460209081526040808320805490941685179093558454938252600390529081208290559293509162000aa583620017a5565b90915550506040516001600160a01b03821681527f6f8898de4bf193997f73616c6f09bc92651ca9643d3ee042d48feb1195d65f3c9060200160405180910390a150505050505050565b6001600160a01b0380821660009081526003602090815260408083205480845260048084528285205483517fea97ea6400000000000000000000000000000000000000000000000000000000815293519596929592169363ea97ea649380830193919290829003018188875af115801562000b6e573d6000803e3d6000fd5b505050506040513d601f19601f82011682018060405250810190620009a09190620018c8565b6060600060015467ffffffffffffffff81111562000bb65762000bb6620014ea565b60405190808252806020026020018201604052801562000c4b57816020015b62000c3760405180610140016040528060006001600160a01b0316815260200160001515815260200160608152602001606081526020016000815260200160008152602001600081526020016060815260200160608152602001606081525090565b81526020019060019003908162000bd55790505b50905060005b600154811015620009a35762000c678162000f5d565b82828151811062000c7c5762000c7c6200178f565b6020026020010181905250808062000c9490620017a5565b91505062000c51565b60008662000cab81620010ff565b6000888152600460208190526040918290205491517fa79f928d0000000000000000000000000000000000000000000000000000000081526001600160a01b039092169163a79f928d9162000d0d918c918c918c918c918c918c9101620018e2565b6020604051808303816000875af115801562000d2d573d6000803e3d6000fd5b505050506040513d601f19601f8201168201806040525081019062000d5391906200182b565b50600198975050505050505050565b60008162000d7081620010ff565b60008381526004602081905260408083205490517fd9acef5f0000000000000000000000000000000000000000000000000000000081526001600160a01b039091169263d9acef5f9262000dc8920190815260200190565b6020604051808303816000875af115801562000de8573d6000803e3d6000fd5b505050506040513d601f19601f8201168201806040525081019062000e0e91906200182b565b5060019392505050565b60008181526004602081905260408083205490517f0fa91fa900000000000000000000000000000000000000000000000000000000815260609384936001600160a01b0390931692630fa91fa99262000e7692910190815260200190565b600060405180830381865afa15801562000e94573d6000803e3d6000fd5b505050506040513d6000823e601f3d908101601f1916820160405262000ebe919081019062001a4e565b91509150915091565b62000ed162001046565b6001600160a01b03811662000f4f5760405162461bcd60e51b815260206004820152602660248201527f4f776e61626c653a206e6577206f776e657220697320746865207a65726f206160448201527f6464726573730000000000000000000000000000000000000000000000000000606482015260840162000830565b62000f5a81620010a2565b50565b62000fbf60405180610140016040528060006001600160a01b0316815260200160001515815260200160608152602001606081526020016000815260200160008152602001600081526020016060815260200160608152602001606081525090565b6000828152600460208190526040808320549051630506586f60e21b81526001600160a01b039091169263141961bc9262000ffe920190815260200190565b600060405180830381865afa1580156200101c573d6000803e3d6000fd5b505050506040513d6000823e601f3d908101601f19168201604052620004cc919081019062001b0d565b6000546001600160a01b03163314620008f25760405162461bcd60e51b815260206004820181905260248201527f4f776e61626c653a2063616c6c6572206973206e6f7420746865206f776e6572604482015260640162000830565b600080546001600160a01b0383811673ffffffffffffffffffffffffffffffffffffffff19831681178455604051919092169283917f8be0079c531659141344cd1fd0a4f28419497f9722a3daafe3b4186f6b6457e09190a35050565b6000818152600460208190526040808320549051630506586f60e21b81529182018390526001600160a01b03169063141961bc90602401600060405180830381865afa15801562001154573d6000803e3d6000fd5b505050506040513d6000823e601f3d908101601f191682016040526200117e919081019062001b0d565b80519091506001600160a01b0316331480620011a457506000546001600160a01b031633145b620008395760405162461bcd60e51b815260206004820152601360248201527f556e617574686f72697a656420456e7469747900000000000000000000000000604482015260640162000830565b6138e48062001c6a83390190565b600080604083850312156200121457600080fd5b50508035926020909101359150565b60005b838110156200124057818101518382015260200162001226565b50506000910152565b600081518084526200126381602086016020860162001223565b601f01601f19169290920160200192915050565b600081518084526020808501945080840160005b83811015620012b25781516001600160a01b0316875295820195908201906001016200128b565b509495945050505050565b600081518084526020808501945080840160005b83811015620012b257815187529582019590820190600101620012d1565b60006020808301818452808551808352604092508286019150828160051b87010184880160005b838110156200140b57888303603f19018552815180516001600160a01b0316845261014081890151801515868b0152508782015181898701526200135d8287018262001249565b9150506060808301518683038288015262001379838262001249565b92505050608080830151818701525060a080830151818701525060c080830151818701525060e08083015186830382880152620013b7838262001249565b925050506101008083015186830382880152620013d5838262001277565b925050506101208083015192508582038187015250620013f68183620012bd565b96890196945050509086019060010162001316565b509098975050505050505050565b6000602082840312156200142c57600080fd5b5035919050565b60006101006001600160a01b038b1683528915156020840152806040840152620014608184018a62001249565b9050828103606084015262001476818962001249565b90508660808401528560a08401528460c084015282810360e08401526200149e818562001249565b9b9a5050505050505050505050565b6001600160a01b038116811462000f5a57600080fd5b600060208284031215620014d657600080fd5b8135620014e381620014ad565b9392505050565b634e487b7160e01b600052604160045260246000fd5b604051610140810167ffffffffffffffff81118282101715620015275762001527620014ea565b60405290565b604051601f8201601f1916810167ffffffffffffffff81118282101715620015595762001559620014ea565b604052919050565b600067ffffffffffffffff8211156200157e576200157e620014ea565b50601f01601f191660200190565b600082601f8301126200159e57600080fd5b8135620015b5620015af8262001561565b6200152d565b818152846020838601011115620015cb57600080fd5b816020850160208301376000918101602001919091529392505050565b60008060008060008060c087890312156200160257600080fd5b86356200160f81620014ad565b9550602087013567ffffffffffffffff808211156200162d57600080fd5b6200163b8a838b016200158c565b965060408901359150808211156200165257600080fd5b620016608a838b016200158c565b9550606089013594506080890135935060a08901359150808211156200168557600080fd5b506200169489828a016200158c565b9150509295509295509295565b60008060008060008060c08789031215620016bb57600080fd5b86359550602087013567ffffffffffffffff808211156200162d57600080fd5b604080825283519082018190526000906020906060840190828701845b828110156200171f5781516001600160a01b031684529284019290840190600101620016f8565b5050508381038285015284518082528583019183019060005b81811015620017565783518352928401929184019160010162001738565b5090979650505050505050565b634e487b7160e01b600052601160045260246000fd5b81810381811115620004cc57620004cc62001763565b634e487b7160e01b600052603260045260246000fd5b600060018201620017ba57620017ba62001763565b5060010190565b600181811c90821680620017d657607f821691505b602082108103620009a357634e487b7160e01b600052602260045260246000fd5b600082516200180b81846020870162001223565b9190910192915050565b805180151581146200182657600080fd5b919050565b6000602082840312156200183e57600080fd5b620014e38262001815565b60006101006001600160a01b03808c1684528160208501526200186f8285018c62001249565b9150838203604085015262001885828b62001249565b915088606085015287608085015283820360a0850152620018a7828862001249565b925080861660c085015280851660e085015250509998505050505050505050565b600060208284031215620018db57600080fd5b5051919050565b86815260c060208201526000620018fd60c083018862001249565b828103604084015262001911818862001249565b905085606084015284608084015282810360a084015262001933818562001249565b9998505050505050505050565b600067ffffffffffffffff8211156200195d576200195d620014ea565b5060051b60200190565b80516200182681620014ad565b600082601f8301126200198657600080fd5b8151602062001999620015af8362001940565b82815260059290921b84018101918181019086841115620019b957600080fd5b8286015b84811015620019e1578051620019d381620014ad565b8352918301918301620019bd565b509695505050505050565b600082601f830112620019fe57600080fd5b8151602062001a11620015af8362001940565b82815260059290921b8401810191818101908684111562001a3157600080fd5b8286015b84811015620019e1578051835291830191830162001a35565b6000806040838503121562001a6257600080fd5b825167ffffffffffffffff8082111562001a7b57600080fd5b62001a898683870162001974565b9350602085015191508082111562001aa057600080fd5b5062001aaf85828601620019ec565b9150509250929050565b600082601f83011262001acb57600080fd5b815162001adc620015af8262001561565b81815284602083860101111562001af257600080fd5b62001b0582602083016020870162001223565b949350505050565b60006020828403121562001b2057600080fd5b815167ffffffffffffffff8082111562001b3957600080fd5b90830190610140828603121562001b4f57600080fd5b62001b5962001500565b62001b648362001967565b815262001b746020840162001815565b602082015260408301518281111562001b8c57600080fd5b62001b9a8782860162001ab9565b60408301525060608301518281111562001bb357600080fd5b62001bc18782860162001ab9565b6060830152506080830151608082015260a083015160a082015260c083015160c082015260e08301518281111562001bf857600080fd5b62001c068782860162001ab9565b60e083015250610100808401518381111562001c2157600080fd5b62001c2f8882870162001974565b828401525050610120808401518381111562001c4a57600080fd5b62001c5888828701620019ec565b91830191909152509594505050505056fe60a06040523480156200001157600080fd5b50604051620038e4380380620038e48339810160408190526200003491620004f4565b6200003f33620001a8565b6200004f888888888888620001f8565b6001600160a01b0381166080526040805163784c3b3d60e11b815290517343000000000000000000000000000000000000029163f098767a91600480830192600092919082900301818387803b158015620000a957600080fd5b505af1158015620000be573d6000803e3d6000fd5b505050507343000000000000000000000000000000000000026001600160a01b0316634e606c476040518163ffffffff1660e01b8152600401600060405180830381600087803b1580156200011257600080fd5b505af115801562000127573d6000803e3d6000fd5b5050604051631d70c8d360e31b81526001600160a01b0385166004820152734300000000000000000000000000000000000002925063eb8646989150602401600060405180830381600087803b1580156200018157600080fd5b505af115801562000196573d6000803e3d6000fd5b5050505050505050505050506200072d565b600080546001600160a01b038381166001600160a01b0319831681178455604051919092169283917f8be0079c531659141344cd1fd0a4f28419497f9722a3daafe3b4186f6b6457e09190a35050565b84848484846200020c858585858562000382565b600054600160a01b900460ff16156200022457600080fd5b864210620002795760405162461bcd60e51b815260206004820152601e60248201527f446561646c696e65206d75737420626520696e2074686520667574757265000060448201526064015b60405180910390fd5b60008054600160a81b900462ffffff16815260016020819052604090912080546001600160a01b0319166001600160a01b038e16178155908101620002bf8c8262000661565b5060028101620002d08b8262000661565b5060038101899055600481018890556000600582015560068101620002f6888262000661565b50805460ff60a01b1916815560005460408051600160a81b90920462ffffff1682526060602083018190526010908301526f10d85b5c185a59db8810dc99585d195960821b6080830152429082015233907faee8e5d3bbb2f71a951b5632cee20f7ac487b9f8ab4f66a236f7694b13af7c6a9060a00160405180910390a2505050505050505050505050565b6000855111801562000395575060008451115b8015620003a25750600083115b8015620003af5750600082115b8015620003bd575060008151115b6200040b5760405162461bcd60e51b815260206004820152601960248201527f4e756c6c2076616c7565206e6f742061636365707461626c6500000000000000604482015260640162000270565b5050505050565b80516001600160a01b03811681146200042a57600080fd5b919050565b634e487b7160e01b600052604160045260246000fd5b600082601f8301126200045757600080fd5b81516001600160401b03808211156200047457620004746200042f565b604051601f8301601f19908116603f011681019082821181831017156200049f576200049f6200042f565b81604052838152602092508683858801011115620004bc57600080fd5b600091505b83821015620004e05785820183015181830184015290820190620004c1565b600093810190920192909252949350505050565b600080600080600080600080610100898b0312156200051257600080fd5b6200051d8962000412565b60208a01519098506001600160401b03808211156200053b57600080fd5b620005498c838d0162000445565b985060408b01519150808211156200056057600080fd5b6200056e8c838d0162000445565b975060608b0151965060808b0151955060a08b01519150808211156200059357600080fd5b50620005a28b828c0162000445565b935050620005b360c08a0162000412565b9150620005c360e08a0162000412565b90509295985092959890939650565b600181811c90821680620005e757607f821691505b6020821081036200060857634e487b7160e01b600052602260045260246000fd5b50919050565b601f8211156200065c57600081815260208120601f850160051c81016020861015620006375750805b601f850160051c820191505b81811015620006585782815560010162000643565b5050505b505050565b81516001600160401b038111156200067d576200067d6200042f565b62000695816200068e8454620005d2565b846200060e565b602080601f831160018114620006cd5760008415620006b45750858301515b600019600386901b1c1916600185901b17855562000658565b600085815260208120601f198616915b82811015620006fe57888601518255948401946001909101908401620006dd565b50858210156200071d5787850151600019600388901b60f8161c191681555b5050505050600190811b01905550565b60805161316a6200077a6000396000818161038501528181610579015281816108f901528181610a4e01528181610eba015281816113cc015281816114a50152611cd5015261316a6000f3fe6080604052600436106101ac5760003560e01c80636ca26888116100ec578063a79f928d1161008a578063d9acef5f11610064578063d9acef5f146104f9578063e525310514610519578063ea97ea6414610539578063f2fde38b1461054e57600080fd5b8063a79f928d1461048a578063ad5c4648146104aa578063b2fabdb0146104d257600080fd5b80638da5cb5b116100c65780638da5cb5b1461041a5780639060fcb91461043857806397d757761461044d578063a6b036331461046857600080fd5b80636ca26888146103a7578063715018a6146103e557806375970193146103fa57600080fd5b806319a88105116101595780633857a5ac116101335780633857a5ac1461034b57806342a4fda81461036057806347442ef5146102c25780634df8ccb11461037357600080fd5b806319a88105146102c257806331a0edec146102eb5780633616fcbe1461032b57600080fd5b80630fa91fa91161018a5780630fa91fa914610240578063141961bc1461026e5780631655c2aa146102a257600080fd5b806307ca140d146101b15780630905f560146101ed5780630e8676b91461021e575b600080fd5b3480156101bd57600080fd5b506000546101d490600160a81b900462ffffff1681565b60405162ffffff90911681526020015b60405180910390f35b3480156101f957600080fd5b5060005461020e90600160a01b900460ff1681565b60405190151581526020016101e4565b34801561022a57600080fd5b5061023e610239366004612acd565b61056e565b005b34801561024c57600080fd5b5061026061025b366004612acd565b610633565b6040516101e4929190612b2a565b34801561027a57600080fd5b5061028e610289366004612acd565b610704565b6040516101e4989796959493929190612bc7565b3480156102ae57600080fd5b5061023e6102bd366004612c3b565b6108ee565b3480156102ce57600080fd5b506102d8611f4081565b60405161ffff90911681526020016101e4565b3480156102f757600080fd5b5061031373420000000000000000000000000000000000002281565b6040516001600160a01b0390911681526020016101e4565b34801561033757600080fd5b5061023e610346366004612c3b565b610a43565b34801561035757600080fd5b5061023e610eaf565b61023e61036e366004612acd565b610f4a565b34801561037f57600080fd5b506103137f000000000000000000000000000000000000000000000000000000000000000081565b3480156103b357600080fd5b506103d76103c2366004612acd565b60009081526001602052604090206008015490565b6040519081526020016101e4565b3480156103f157600080fd5b5061023e6111f2565b34801561040657600080fd5b5061020e610415366004612acd565b611206565b34801561042657600080fd5b506000546001600160a01b0316610313565b34801561044457600080fd5b5061023e6113c1565b34801561045957600080fd5b506103136002604360981b0181565b34801561047457600080fd5b5061047d611522565b6040516101e49190612c9b565b34801561049657600080fd5b5061020e6104a5366004612e5c565b6118ff565b3480156104b657600080fd5b5061031373420000000000000000000000000000000000002381565b3480156104de57600080fd5b506104e7606481565b60405160ff90911681526020016101e4565b34801561050557600080fd5b5061020e610514366004612acd565b611b0c565b34801561052557600080fd5b5061023e610534366004612f00565b611cca565b34801561054557600080fd5b506103d7611d3f565b34801561055a57600080fd5b5061023e610569366004612c3b565b611dc6565b336001600160a01b037f000000000000000000000000000000000000000000000000000000000000000016146105a357600080fd5b600081815260016020526040808220426004909101819055905133927faee8e5d3bbb2f71a951b5632cee20f7ac487b9f8ab4f66a236f7694b13af7c6a9261062892918252606060208301819052600f908301527f43616d706169676e2068616c74656400000000000000000000000000000000006080830152604082015260a00190565b60405180910390a250565b6000818152600160209081526040918290206007810180548451818502810185019095528085526060948594929360080192909184918301828280156106a257602002820191906000526020600020905b81546001600160a01b03168152600190910190602001808311610684575b50505050509150808054806020026020016040519081016040528092919081815260200182805480156106f457602002820191906000526020600020905b8154815260200190600101908083116106e0575b5050505050905091509150915091565b6001602081905260009182526040909120805491810180546001600160a01b03841693600160a01b900460ff1692919061073d90612f22565b80601f016020809104026020016040519081016040528092919081815260200182805461076990612f22565b80156107b65780601f1061078b576101008083540402835291602001916107b6565b820191906000526020600020905b81548152906001019060200180831161079957829003601f168201915b5050505050908060020180546107cb90612f22565b80601f01602080910402602001604051908101604052809291908181526020018280546107f790612f22565b80156108445780601f1061081957610100808354040283529160200191610844565b820191906000526020600020905b81548152906001019060200180831161082757829003601f168201915b50505050509080600301549080600401549080600501549080600601805461086b90612f22565b80601f016020809104026020016040519081016040528092919081815260200182805461089790612f22565b80156108e45780601f106108b9576101008083540402835291602001916108e4565b820191906000526020600020905b8154815290600101906020018083116108c757829003601f168201915b5050505050905088565b336001600160a01b037f0000000000000000000000000000000000000000000000000000000000000000161461092357600080fd5b6000805260016020527fa6eef7e35abe7026729641147f7915573c7e97b47efa546f5f6e3230263bcb4d5461095b9062278d00612f6c565b4210156109af5760405162461bcd60e51b815260206004820152601b60248201527f436c61696d696e6720676173206e6f74206f70656e656420796574000000000060448201526064015b60405180910390fd5b6040517f954fa5ee0000000000000000000000000000000000000000000000000000000081523060048201526001600160a01b03821660248201526002604360981b019063954fa5ee906044016020604051808303816000875af1158015610a1b573d6000803e3d6000fd5b505050506040513d601f19601f82011682018060405250810190610a3f9190612f7f565b5050565b336001600160a01b037f00000000000000000000000000000000000000000000000000000000000000001614610a7857600080fd5b60008080526001602090815260408051610140810182527fa6eef7e35abe7026729641147f7915573c7e97b47efa546f5f6e3230263bcb4980546001600160a01b0381168352600160a01b900460ff161515938201939093527fa6eef7e35abe7026729641147f7915573c7e97b47efa546f5f6e3230263bcb4a8054919392840191610b0390612f22565b80601f0160208091040260200160405190810160405280929190818152602001828054610b2f90612f22565b8015610b7c5780601f10610b5157610100808354040283529160200191610b7c565b820191906000526020600020905b815481529060010190602001808311610b5f57829003601f168201915b50505050508152602001600282018054610b9590612f22565b80601f0160208091040260200160405190810160405280929190818152602001828054610bc190612f22565b8015610c0e5780601f10610be357610100808354040283529160200191610c0e565b820191906000526020600020905b815481529060010190602001808311610bf157829003601f168201915b50505050508152602001600382015481526020016004820154815260200160058201548152602001600682018054610c4590612f22565b80601f0160208091040260200160405190810160405280929190818152602001828054610c7190612f22565b8015610cbe5780601f10610c9357610100808354040283529160200191610cbe565b820191906000526020600020905b815481529060010190602001808311610ca157829003601f168201915b5050505050815260200160078201805480602002602001604051908101604052809291908181526020018280548015610d2057602002820191906000526020600020905b81546001600160a01b03168152600190910190602001808311610d02575b5050505050815260200160088201805480602002602001604051908101604052809291908181526020018280548015610d7857602002820191906000526020600020905b815481526020019060010190808311610d64575b50505050508152505090508060a0015162278d00610d969190612f6c565b421015610de55760405162461bcd60e51b815260206004820152601b60248201527f436c61696d696e6720676173206e6f74206f70656e656420796574000000000060448201526064016109a6565b60008161010001515167ffffffffffffffff811115610e0657610e06612db9565b604051908082528060200260200182016040528015610e2f578160200160208202803683370190505b506040517f375caabd0000000000000000000000000000000000000000000000000000000081529091506001600160a01b0384169063375caabd90610e78908490600401612f98565b600060405180830381600087803b158015610e9257600080fd5b505af1158015610ea6573d6000803e3d6000fd5b50505050505050565b336001600160a01b037f00000000000000000000000000000000000000000000000000000000000000001614610ee457600080fd5b6000805460ff600160a01b808304821615810260ff60a01b1990931692909217928390556040517f2cde22acc8fd53a00979e46849e256a19250dc0d6626358410d5a4ee27ad6c7993610f409390049091161515815260200190565b60405180910390a1565b600054600160a01b900460ff1615610f6157600080fd5b34600003610fa4576040517f8351d917000000000000000000000000000000000000000000000000000000008152600160048201523460248201526044016109a6565b600081815260016020819052604090912080549091600160a01b90910460ff16151590036110145760405162461bcd60e51b815260206004820152601760248201527f46756e64732077697468647261776564206265666f726500000000000000000060448201526064016109a6565b80546001600160a01b031661106b5760405162461bcd60e51b815260206004820152601e60248201527f4e6f2063616d706169676e20657869737420776974682074686973204944000060448201526064016109a6565b42816004015410156110ae57600082815260016020526040908190206004908101549151630113bf8960e11b8152908101919091524260248201526044016109a6565b600581015434906110bf9082611e53565b826005015411156111125760405162461bcd60e51b815260206004820152601960248201527f54617267657420616d6f756e742068617320726561636865640000000000000060448201526064016109a6565b60058201546111219082611e53565b60058301556007820180546001818101835560009283526020808420909201805473ffffffffffffffffffffffffffffffffffffffff191633908117909155600886018054928301815584529183200183905560405190917faee8e5d3bbb2f71a951b5632cee20f7ac487b9f8ab4f66a236f7694b13af7c6a916111e5919042909182526060602083018190526018908301527f446f6e6174696f6e20546f205468652043616d706169676e00000000000000006080830152604082015260a00190565b60405180910390a2505050565b6111fa611e68565b6112046000611ec2565b565b60008161121281611f1f565b600054600160a01b900460ff161561122957600080fd5b6000838152600160205260409020546001600160a01b031661128d5760405162461bcd60e51b815260206004820152601e60248201527f4e6f2063616d706169676e20657869737420776974682074686973204944000060448201526064016109a6565b600083815260016020526040902060050154156112ae576112ae6000612269565b6000838152600160208190526040822080547fffffffffffffffffffffff00000000000000000000000000000000000000000016815591906112f290830182612a60565b611300600283016000612a60565b6003820160009055600482016000905560058201600090556006820160006113289190612a60565b611336600783016000612a9a565b611344600883016000612a9a565b5050604080518481526060602082018190526010908201527f43616d706169676e2044656c657465640000000000000000000000000000000060808201524281830152905133917faee8e5d3bbb2f71a951b5632cee20f7ac487b9f8ab4f66a236f7694b13af7c6a919081900360a00190a2600191505b50919050565b336001600160a01b037f000000000000000000000000000000000000000000000000000000000000000016146113f657600080fd5b6000805260016020527fa6eef7e35abe7026729641147f7915573c7e97b47efa546f5f6e3230263bcb4d54421161146f5760405162461bcd60e51b815260206004820152601f60248201527f7969656c64207769746864726177616c206e6f74206f70656e6564207965740060448201526064016109a6565b6040517f860043b60000000000000000000000000000000000000000000000000000000081523060048201526001600160a01b037f00000000000000000000000000000000000000000000000000000000000000001660248201526002604360981b019063860043b6906044016020604051808303816000875af11580156114fb573d6000803e3d6000fd5b505050506040513d601f19601f8201168201806040525081019061151f9190612f7f565b50565b6000805460609190600160a81b900462ffffff1667ffffffffffffffff81111561154e5761154e612db9565b6040519080825280602002602001820160405280156115e057816020015b6115cd60405180610140016040528060006001600160a01b0316815260200160001515815260200160608152602001606081526020016000815260200160008152602001600081526020016060815260200160608152602001606081525090565b81526020019060019003908161156c5790505b50905060005b600054600160a81b900462ffffff168110156113bb5760008181526001602081815260409283902083516101408101855281546001600160a01b0381168252600160a01b900460ff1615159281019290925291820180549293919284928401919061165090612f22565b80601f016020809104026020016040519081016040528092919081815260200182805461167c90612f22565b80156116c95780601f1061169e576101008083540402835291602001916116c9565b820191906000526020600020905b8154815290600101906020018083116116ac57829003601f168201915b505050505081526020016002820180546116e290612f22565b80601f016020809104026020016040519081016040528092919081815260200182805461170e90612f22565b801561175b5780601f106117305761010080835404028352916020019161175b565b820191906000526020600020905b81548152906001019060200180831161173e57829003601f168201915b5050505050815260200160038201548152602001600482015481526020016005820154815260200160068201805461179290612f22565b80601f01602080910402602001604051908101604052809291908181526020018280546117be90612f22565b801561180b5780601f106117e05761010080835404028352916020019161180b565b820191906000526020600020905b8154815290600101906020018083116117ee57829003601f168201915b505050505081526020016007820180548060200260200160405190810160405280929190818152602001828054801561186d57602002820191906000526020600020905b81546001600160a01b0316815260019091019060200180831161184f575b50505050508152602001600882018054806020026020016040519081016040528092919081815260200182805480156118c557602002820191906000526020600020905b8154815260200190600101908083116118b1575b5050505050815250508383815181106118e0576118e0612fab565b60200260200101819052505080806118f790612fc1565b9150506115e6565b60008661190b81611f1f565b868686868661191d858585858561231f565b600054600160a01b900460ff161561193457600080fd5b8842106119835760405162461bcd60e51b815260206004820152601e60248201527f446561646c696e65206d75737420626520696e2074686520667574757265000060448201526064016109a6565b60008d815260016020526040902080546001600160a01b03166119e85760405162461bcd60e51b815260206004820152601e60248201527f4e6f2063616d706169676e20657869737420776974682074686973204944000060448201526064016109a6565b600581015415611a3a5760405162461bcd60e51b815260206004820152601e60248201527f557064617465206572726f723a20616d6f756e7420636f6c6c6563746564000060448201526064016109a6565b60018101611a488e82613028565b5060028101611a578d82613028565b50600381018b9055600481018a90556000600582015560068101611a7b8a82613028565b50805460ff60a01b1916815560408051600081526060602082018190526010908201527f43616d706169676e20557064617465640000000000000000000000000000000060808201524281830152905133917faee8e5d3bbb2f71a951b5632cee20f7ac487b9f8ab4f66a236f7694b13af7c6a919081900360a00190a25060019d9c50505050505050505050505050565b600081611b1881611f1f565b600054600160a01b900460ff1615611b2f57600080fd5b600083815260016020819052604090912054600160a01b900460ff1615159003611b9b5760405162461bcd60e51b815260206004820152601760248201527f46756e64732077697468647261776564206265666f726500000000000000000060448201526064016109a6565b600083815260016020526040902060040154421015611beb57600083815260016020526040908190206004908101549151630113bf8960e11b8152908101919091524260248201526044016109a6565b6000838152600160205260408120805460ff60a01b1916600160a01b17905580611c14856123a9565b6000878152600160205260409020549193509150611c44906001600160a01b0316611c3f83856130e8565b6123e2565b50611c4e816124ef565b60408051600081526060602082018190526010908201527f46756e6473205769746864726177616c0000000000000000000000000000000060808201524281830152905133917faee8e5d3bbb2f71a951b5632cee20f7ac487b9f8ab4f66a236f7694b13af7c6a919081900360a00190a2506001949350505050565b336001600160a01b037f00000000000000000000000000000000000000000000000000000000000000001614611cff57600080fd5b600054600160a01b900460ff16611d1557600080fd5b815b818111611d3a57611d28838361250a565b80611d3281612fc1565b915050611d17565b505050565b6040517fec3278e80000000000000000000000000000000000000000000000000000000081523060048201526000906002604360981b019063ec3278e890602401602060405180830381865afa158015611d9d573d6000803e3d6000fd5b505050506040513d601f19601f82011682018060405250810190611dc19190612f7f565b905090565b611dce611e68565b6001600160a01b038116611e4a5760405162461bcd60e51b815260206004820152602660248201527f4f776e61626c653a206e6577206f776e657220697320746865207a65726f206160448201527f646472657373000000000000000000000000000000000000000000000000000060648201526084016109a6565b61151f81611ec2565b6000611e5f8284612f6c565b90505b92915050565b6000546001600160a01b031633146112045760405162461bcd60e51b815260206004820181905260248201527f4f776e61626c653a2063616c6c6572206973206e6f7420746865206f776e657260448201526064016109a6565b600080546001600160a01b0383811673ffffffffffffffffffffffffffffffffffffffff19831681178455604051919092169283917f8be0079c531659141344cd1fd0a4f28419497f9722a3daafe3b4186f6b6457e09190a35050565b600081815260016020818152604080842081516101408101835281546001600160a01b0381168252600160a01b900460ff16151593810193909352928301805492939291840191611f6f90612f22565b80601f0160208091040260200160405190810160405280929190818152602001828054611f9b90612f22565b8015611fe85780601f10611fbd57610100808354040283529160200191611fe8565b820191906000526020600020905b815481529060010190602001808311611fcb57829003601f168201915b5050505050815260200160028201805461200190612f22565b80601f016020809104026020016040519081016040528092919081815260200182805461202d90612f22565b801561207a5780601f1061204f5761010080835404028352916020019161207a565b820191906000526020600020905b81548152906001019060200180831161205d57829003601f168201915b505050505081526020016003820154815260200160048201548152602001600582015481526020016006820180546120b190612f22565b80601f01602080910402602001604051908101604052809291908181526020018280546120dd90612f22565b801561212a5780601f106120ff5761010080835404028352916020019161212a565b820191906000526020600020905b81548152906001019060200180831161210d57829003601f168201915b505050505081526020016007820180548060200260200160405190810160405280929190818152602001828054801561218c57602002820191906000526020600020905b81546001600160a01b0316815260019091019060200180831161216e575b50505050508152602001600882018054806020026020016040519081016040528092919081815260200182805480156121e457602002820191906000526020600020905b8154815260200190600101908083116121d0575b505050505081525050905080600001516001600160a01b0316336001600160a01b0316148061221d57506000546001600160a01b031633145b610a3f5760405162461bcd60e51b815260206004820152601360248201527f556e617574686f72697a656420456e746974790000000000000000000000000060448201526064016109a6565b6000818152600160205260408120815b60078201548110156123125781600801818154811061229a5761229a612fab565b9060005260206000200154925060008260080182815481106122be576122be612fab565b90600052602060002001819055506122ff8260070182815481106122e4576122e4612fab565b6000918252602090912001546001600160a01b0316846123e2565b508061230a81612fc1565b915050612279565b5060006005909101555050565b60008551118015612331575060008451115b801561233d5750600083115b80156123495750600082115b8015612356575060008151115b6123a25760405162461bcd60e51b815260206004820152601960248201527f4e756c6c2076616c7565206e6f742061636365707461626c650000000000000060448201526064016109a6565b5050505050565b6000818152600160205260408120600501548190816127106123cc6064846130fb565b6123d69190613112565b91959194509092505050565b600080836001600160a01b03168360405160006040518083038185875af1925050503d8060008114612430576040519150601f19603f3d011682016040523d82523d6000602084013e612435565b606091505b50509050806124865760405162461bcd60e51b815260206004820152600c60248201527f506179546f206661696c6564000000000000000000000000000000000000000060448201526064016109a6565b600061249061269e565b90506001811515146124e45760405162461bcd60e51b815260206004820152601260248201527f5969656c6420636c61696d206661696c6564000000000000000000000000000060448201526064016109a6565b506001949350505050565b610a3f6125046000546001600160a01b031690565b826123e2565b8082106125595760405162461bcd60e51b815260206004820152601060248201527f496e76616c69642069642072616e67650000000000000000000000000000000060448201526064016109a6565b6000818152600160205260409020546001600160a01b03166125bd5760405162461bcd60e51b815260206004820152601e60248201527f4e6f2063616d706169676e20657869737420776974682074686973204944000060448201526064016109a6565b6000825b82811015612698576000818152600160205260409020600781015480156126835760005b8181101561267a5782600801818154811061260257612602612fab565b90600052602060002001549450600083600801828154811061262657612626612fab565b906000526020600020018190555061266783600701828154811061264c5761264c612fab565b6000918252602090912001546001600160a01b0316866123e2565b508061267281612fc1565b9150506125e5565b50600060058301555b5050808061269090612fc1565b9150506125c1565b50505050565b60008060006126ab6127b6565b9150915060005b81518110156127ac576002604360981b016001600160a01b031663f9719662308584815181106126e4576126e4612fab565b60200260200101518585815181106126fe576126fe612fab565b60209081029190910101516040517fffffffff0000000000000000000000000000000000000000000000000000000060e086901b1681526001600160a01b03938416600482015292909116602483015260448201526064016020604051808303816000875af1158015612775573d6000803e3d6000fd5b505050506040513d601f19601f820116820180604052508101906127999190612f7f565b50806127a481612fc1565b9150506126b2565b5060019250505090565b600080805260016020527fa6eef7e35abe7026729641147f7915573c7e97b47efa546f5f6e3230263bcb51547fa6eef7e35abe7026729641147f7915573c7e97b47efa546f5f6e3230263bcb4e5460609283929190612813611d3f565b905060008367ffffffffffffffff81111561283057612830612db9565b604051908082528060200260200182016040528015612859578160200160208202803683370190505b50905060008467ffffffffffffffff81111561287757612877612db9565b6040519080825280602002602001820160405280156128a0578160200160208202803683370190505b50905060008567ffffffffffffffff8111156128be576128be612db9565b6040519080825280602002602001820160405280156128e7578160200160208202803683370190505b50905060005b86811015612a52576000805260016020527fa6eef7e35abe7026729641147f7915573c7e97b47efa546f5f6e3230263bcb5080548290811061293157612931612fab565b9060005260206000200160009054906101000a90046001600160a01b031683828151811061296157612961612fab565b6001600160a01b0390921660209283029190910182015260008052600190527fa6eef7e35abe7026729641147f7915573c7e97b47efa546f5f6e3230263bcb518054829081106129b3576129b3612fab565b90600052602060002001548482815181106129d0576129d0612fab565b60209081029190910101526127106129ea611f40876130fb565b6129f49190613112565b86858381518110612a0757612a07612fab565b6020026020010151612a199190613112565b612a2391906130fb565b828281518110612a3557612a35612fab565b602090810291909101015280612a4a81612fc1565b9150506128ed565b509097909650945050505050565b508054612a6c90612f22565b6000825580601f10612a7c575050565b601f01602090049060005260206000209081019061151f9190612ab4565b508054600082559060005260206000209081019061151f91905b5b80821115612ac95760008155600101612ab5565b5090565b600060208284031215612adf57600080fd5b5035919050565b600081518084526020808501945080840160005b83811015612b1f5781516001600160a01b031687529582019590820190600101612afa565b509495945050505050565b604081526000612b3d6040830185612ae6565b82810360208481019190915284518083528582019282019060005b81811015612b7457845183529383019391830191600101612b58565b5090979650505050505050565b6000815180845260005b81811015612ba757602081850181015186830182015201612b8b565b506000602082860101526020601f19601f83011685010191505092915050565b60006101006001600160a01b038b1683528915156020840152806040840152612bf28184018a612b81565b90508281036060840152612c068189612b81565b90508660808401528560a08401528460c084015282810360e0840152612c2c8185612b81565b9b9a5050505050505050505050565b600060208284031215612c4d57600080fd5b81356001600160a01b0381168114612c6457600080fd5b9392505050565b600081518084526020808501945080840160005b83811015612b1f57815187529582019590820190600101612c7f565b60006020808301818452808551808352604092508286019150828160051b87010184880160005b83811015612dab57888303603f19018552815180516001600160a01b0316845261014081890151801515868b015250878201518189870152612d0682870182612b81565b91505060608083015186830382880152612d208382612b81565b92505050608080830151818701525060a080830151818701525060c080830151818701525060e08083015186830382880152612d5c8382612b81565b925050506101008083015186830382880152612d788382612ae6565b925050506101208083015192508582038187015250612d978183612c6b565b968901969450505090860190600101612cc2565b509098975050505050505050565b634e487b7160e01b600052604160045260246000fd5b600082601f830112612de057600080fd5b813567ffffffffffffffff80821115612dfb57612dfb612db9565b604051601f8301601f19908116603f01168101908282118183101715612e2357612e23612db9565b81604052838152866020858801011115612e3c57600080fd5b836020870160208301376000602085830101528094505050505092915050565b60008060008060008060c08789031215612e7557600080fd5b86359550602087013567ffffffffffffffff80821115612e9457600080fd5b612ea08a838b01612dcf565b96506040890135915080821115612eb657600080fd5b612ec28a838b01612dcf565b9550606089013594506080890135935060a0890135915080821115612ee657600080fd5b50612ef389828a01612dcf565b9150509295509295509295565b60008060408385031215612f1357600080fd5b50508035926020909101359150565b600181811c90821680612f3657607f821691505b6020821081036113bb57634e487b7160e01b600052602260045260246000fd5b634e487b7160e01b600052601160045260246000fd5b80820180821115611e6257611e62612f56565b600060208284031215612f9157600080fd5b5051919050565b602081526000611e5f6020830184612ae6565b634e487b7160e01b600052603260045260246000fd5b600060018201612fd357612fd3612f56565b5060010190565b601f821115611d3a57600081815260208120601f850160051c810160208610156130015750805b601f850160051c820191505b818110156130205782815560010161300d565b505050505050565b815167ffffffffffffffff81111561304257613042612db9565b613056816130508454612f22565b84612fda565b602080601f83116001811461308b57600084156130735750858301515b600019600386901b1c1916600185901b178555613020565b600085815260208120601f198616915b828110156130ba5788860151825594840194600190910190840161309b565b50858210156130d85787850151600019600388901b60f8161c191681555b5050505050600190811b01905550565b81810381811115611e6257611e62612f56565b8082028115828204841417611e6257611e62612f56565b60008261312f57634e487b7160e01b600052601260045260246000fd5b50049056fea264697066735822122013f935689309b5a1d7eb11eba9fbff1c571736a2e41eb57994ef3761a72b61cc64736f6c63430008130033a2646970667358221220726d38f252b0347252fd2b159313d551ecf61ba7759d5ff5272d8bc57692058864736f6c63430008130033",
  "linkReferences": {},
  "deployedLinkReferences": {}
}